{
  "_format": "hh-sol-artifact-1",
  "contractName": "Dappcord",
  "sourceName": "contracts/Dappcord.sol",
  "abi": [
    {
      "inputs": [
        {
          "internalType": "string",
          "name": "_name",
          "type": "string"
        },
        {
          "internalType": "string",
          "name": "_symbol",
          "type": "string"
        }
      ],
      "stateMutability": "nonpayable",
      "type": "constructor"
    },
    {
      "anonymous": false,
      "inputs": [
        {
          "indexed": true,
          "internalType": "address",
          "name": "owner",
          "type": "address"
        },
        {
          "indexed": true,
          "internalType": "address",
          "name": "approved",
          "type": "address"
        },
        {
          "indexed": true,
          "internalType": "uint256",
          "name": "tokenId",
          "type": "uint256"
        }
      ],
      "name": "Approval",
      "type": "event"
    },
    {
      "anonymous": false,
      "inputs": [
        {
          "indexed": true,
          "internalType": "address",
          "name": "owner",
          "type": "address"
        },
        {
          "indexed": true,
          "internalType": "address",
          "name": "operator",
          "type": "address"
        },
        {
          "indexed": false,
          "internalType": "bool",
          "name": "approved",
          "type": "bool"
        }
      ],
      "name": "ApprovalForAll",
      "type": "event"
    },
    {
      "anonymous": false,
      "inputs": [
        {
          "indexed": true,
          "internalType": "address",
          "name": "from",
          "type": "address"
        },
        {
          "indexed": true,
          "internalType": "address",
          "name": "to",
          "type": "address"
        },
        {
          "indexed": true,
          "internalType": "uint256",
          "name": "tokenId",
          "type": "uint256"
        }
      ],
      "name": "Transfer",
      "type": "event"
    },
    {
      "inputs": [
        {
          "internalType": "address",
          "name": "to",
          "type": "address"
        },
        {
          "internalType": "uint256",
          "name": "tokenId",
          "type": "uint256"
        }
      ],
      "name": "approve",
      "outputs": [],
      "stateMutability": "nonpayable",
      "type": "function"
    },
    {
      "inputs": [
        {
          "internalType": "address",
          "name": "owner",
          "type": "address"
        }
      ],
      "name": "balanceOf",
      "outputs": [
        {
          "internalType": "uint256",
          "name": "",
          "type": "uint256"
        }
      ],
      "stateMutability": "view",
      "type": "function"
    },
    {
      "inputs": [
        {
          "internalType": "uint256",
          "name": "",
          "type": "uint256"
        }
      ],
      "name": "channels",
      "outputs": [
        {
          "internalType": "uint256",
          "name": "id",
          "type": "uint256"
        },
        {
          "internalType": "string",
          "name": "name",
          "type": "string"
        },
        {
          "internalType": "uint256",
          "name": "cost",
          "type": "uint256"
        }
      ],
      "stateMutability": "view",
      "type": "function"
    },
    {
      "inputs": [
        {
          "internalType": "string",
          "name": "_name",
          "type": "string"
        },
        {
          "internalType": "uint256",
          "name": "_cost",
          "type": "uint256"
        }
      ],
      "name": "createChannel",
      "outputs": [],
      "stateMutability": "nonpayable",
      "type": "function"
    },
    {
      "inputs": [
        {
          "internalType": "uint256",
          "name": "tokenId",
          "type": "uint256"
        }
      ],
      "name": "getApproved",
      "outputs": [
        {
          "internalType": "address",
          "name": "",
          "type": "address"
        }
      ],
      "stateMutability": "view",
      "type": "function"
    },
    {
      "inputs": [
        {
          "internalType": "uint256",
          "name": "_id",
          "type": "uint256"
        }
      ],
      "name": "getChannel",
      "outputs": [
        {
          "components": [
            {
              "internalType": "uint256",
              "name": "id",
              "type": "uint256"
            },
            {
              "internalType": "string",
              "name": "name",
              "type": "string"
            },
            {
              "internalType": "uint256",
              "name": "cost",
              "type": "uint256"
            }
          ],
          "internalType": "struct Dappcord.Channel",
          "name": "",
          "type": "tuple"
        }
      ],
      "stateMutability": "view",
      "type": "function"
    },
    {
      "inputs": [
        {
          "internalType": "uint256",
          "name": "",
          "type": "uint256"
        },
        {
          "internalType": "address",
          "name": "",
          "type": "address"
        }
      ],
      "name": "hasJoined",
      "outputs": [
        {
          "internalType": "bool",
          "name": "",
          "type": "bool"
        }
      ],
      "stateMutability": "view",
      "type": "function"
    },
    {
      "inputs": [
        {
          "internalType": "address",
          "name": "owner",
          "type": "address"
        },
        {
          "internalType": "address",
          "name": "operator",
          "type": "address"
        }
      ],
      "name": "isApprovedForAll",
      "outputs": [
        {
          "internalType": "bool",
          "name": "",
          "type": "bool"
        }
      ],
      "stateMutability": "view",
      "type": "function"
    },
    {
      "inputs": [
        {
          "internalType": "uint256",
          "name": "_id",
          "type": "uint256"
        }
      ],
      "name": "mint",
      "outputs": [],
      "stateMutability": "payable",
      "type": "function"
    },
    {
      "inputs": [],
      "name": "name",
      "outputs": [
        {
          "internalType": "string",
          "name": "",
          "type": "string"
        }
      ],
      "stateMutability": "view",
      "type": "function"
    },
    {
      "inputs": [],
      "name": "owner",
      "outputs": [
        {
          "internalType": "address",
          "name": "",
          "type": "address"
        }
      ],
      "stateMutability": "view",
      "type": "function"
    },
    {
      "inputs": [
        {
          "internalType": "uint256",
          "name": "tokenId",
          "type": "uint256"
        }
      ],
      "name": "ownerOf",
      "outputs": [
        {
          "internalType": "address",
          "name": "",
          "type": "address"
        }
      ],
      "stateMutability": "view",
      "type": "function"
    },
    {
      "inputs": [
        {
          "internalType": "address",
          "name": "from",
          "type": "address"
        },
        {
          "internalType": "address",
          "name": "to",
          "type": "address"
        },
        {
          "internalType": "uint256",
          "name": "tokenId",
          "type": "uint256"
        }
      ],
      "name": "safeTransferFrom",
      "outputs": [],
      "stateMutability": "nonpayable",
      "type": "function"
    },
    {
      "inputs": [
        {
          "internalType": "address",
          "name": "from",
          "type": "address"
        },
        {
          "internalType": "address",
          "name": "to",
          "type": "address"
        },
        {
          "internalType": "uint256",
          "name": "tokenId",
          "type": "uint256"
        },
        {
          "internalType": "bytes",
          "name": "data",
          "type": "bytes"
        }
      ],
      "name": "safeTransferFrom",
      "outputs": [],
      "stateMutability": "nonpayable",
      "type": "function"
    },
    {
      "inputs": [
        {
          "internalType": "address",
          "name": "operator",
          "type": "address"
        },
        {
          "internalType": "bool",
          "name": "approved",
          "type": "bool"
        }
      ],
      "name": "setApprovalForAll",
      "outputs": [],
      "stateMutability": "nonpayable",
      "type": "function"
    },
    {
      "inputs": [
        {
          "internalType": "bytes4",
          "name": "interfaceId",
          "type": "bytes4"
        }
      ],
      "name": "supportsInterface",
      "outputs": [
        {
          "internalType": "bool",
          "name": "",
          "type": "bool"
        }
      ],
      "stateMutability": "view",
      "type": "function"
    },
    {
      "inputs": [],
      "name": "symbol",
      "outputs": [
        {
          "internalType": "string",
          "name": "",
          "type": "string"
        }
      ],
      "stateMutability": "view",
      "type": "function"
    },
    {
      "inputs": [
        {
          "internalType": "uint256",
          "name": "tokenId",
          "type": "uint256"
        }
      ],
      "name": "tokenURI",
      "outputs": [
        {
          "internalType": "string",
          "name": "",
          "type": "string"
        }
      ],
      "stateMutability": "view",
      "type": "function"
    },
    {
      "inputs": [],
      "name": "totalChannels",
      "outputs": [
        {
          "internalType": "uint256",
          "name": "",
          "type": "uint256"
        }
      ],
      "stateMutability": "view",
      "type": "function"
    },
    {
      "inputs": [],
      "name": "totalSupply",
      "outputs": [
        {
          "internalType": "uint256",
          "name": "",
          "type": "uint256"
        }
      ],
      "stateMutability": "view",
      "type": "function"
    },
    {
      "inputs": [
        {
          "internalType": "address",
          "name": "from",
          "type": "address"
        },
        {
          "internalType": "address",
          "name": "to",
          "type": "address"
        },
        {
          "internalType": "uint256",
          "name": "tokenId",
          "type": "uint256"
        }
      ],
      "name": "transferFrom",
      "outputs": [],
      "stateMutability": "nonpayable",
      "type": "function"
    },
    {
      "inputs": [],
      "name": "withdraw",
      "outputs": [],
      "stateMutability": "nonpayable",
      "type": "function"
    }
  ],
  "bytecode": "0x60806040523480156200001157600080fd5b5060405162003cf838038062003cf883398181016040528101906200003791906200023b565b818181600090816200004a91906200050b565b5080600190816200005c91906200050b565b50505033600660006101000a81548173ffffffffffffffffffffffffffffffffffffffff021916908373ffffffffffffffffffffffffffffffffffffffff1602179055505050620005f2565b6000604051905090565b600080fd5b600080fd5b600080fd5b600080fd5b6000601f19601f8301169050919050565b7f4e487b7100000000000000000000000000000000000000000000000000000000600052604160045260246000fd5b6200011182620000c6565b810181811067ffffffffffffffff82111715620001335762000132620000d7565b5b80604052505050565b600062000148620000a8565b905062000156828262000106565b919050565b600067ffffffffffffffff821115620001795762000178620000d7565b5b6200018482620000c6565b9050602081019050919050565b60005b83811015620001b157808201518184015260208101905062000194565b60008484015250505050565b6000620001d4620001ce846200015b565b6200013c565b905082815260208101848484011115620001f357620001f2620000c1565b5b6200020084828562000191565b509392505050565b600082601f83011262000220576200021f620000bc565b5b815162000232848260208601620001bd565b91505092915050565b60008060408385031215620002555762000254620000b2565b5b600083015167ffffffffffffffff811115620002765762000275620000b7565b5b620002848582860162000208565b925050602083015167ffffffffffffffff811115620002a857620002a7620000b7565b5b620002b68582860162000208565b9150509250929050565b600081519050919050565b7f4e487b7100000000000000000000000000000000000000000000000000000000600052602260045260246000fd5b600060028204905060018216806200031357607f821691505b602082108103620003295762000328620002cb565b5b50919050565b60008190508160005260206000209050919050565b60006020601f8301049050919050565b600082821b905092915050565b600060088302620003937fffffffffffffffffffffffffffffffffffffffffffffffffffffffffffffffff8262000354565b6200039f868362000354565b95508019841693508086168417925050509392505050565b6000819050919050565b6000819050919050565b6000620003ec620003e6620003e084620003b7565b620003c1565b620003b7565b9050919050565b6000819050919050565b6200040883620003cb565b620004206200041782620003f3565b84845462000361565b825550505050565b600090565b6200043762000428565b62000444818484620003fd565b505050565b5b818110156200046c57620004606000826200042d565b6001810190506200044a565b5050565b601f821115620004bb5762000485816200032f565b620004908462000344565b81016020851015620004a0578190505b620004b8620004af8562000344565b83018262000449565b50505b505050565b600082821c905092915050565b6000620004e060001984600802620004c0565b1980831691505092915050565b6000620004fb8383620004cd565b9150826002028217905092915050565b6200051682620002c0565b67ffffffffffffffff811115620005325762000531620000d7565b5b6200053e8254620002fa565b6200054b82828562000470565b600060209050601f8311600181146200058357600084156200056e578287015190505b6200057a8582620004ed565b865550620005ea565b601f19841662000593866200032f565b60005b82811015620005bd5784890151825560018201915060208501945060208101905062000596565b86831015620005dd5784890151620005d9601f891682620004cd565b8355505b6001600288020188555050505b505050505050565b6136f680620006026000396000f3fe6080604052600436106101355760003560e01c806370a08231116100ab578063a14865cd1161006f578063a14865cd1461042d578063a22cb46514610456578063b88d4fde1461047f578063c87b56dd146104a8578063e5949b5d146104e5578063e985e9c51461052457610135565b806370a08231146103535780637734a9f6146103905780638da5cb5b146103bb57806395d89b41146103e6578063a0712d681461041157610135565b806318160ddd116100fd57806318160ddd1461024557806323b872dd146102705780633ccfd60b1461029957806342842e0e146102b05780636352211e146102d9578063681947191461031657610135565b806301ffc9a71461013a57806306fdde0314610177578063081812fc146101a2578063095ea7b3146101df57806310df54a014610208575b600080fd5b34801561014657600080fd5b50610161600480360381019061015c91906121a1565b610561565b60405161016e91906121e9565b60405180910390f35b34801561018357600080fd5b5061018c610643565b6040516101999190612294565b60405180910390f35b3480156101ae57600080fd5b506101c960048036038101906101c491906122ec565b6106d5565b6040516101d6919061235a565b60405180910390f35b3480156101eb57600080fd5b50610206600480360381019061020191906123a1565b61071b565b005b34801561021457600080fd5b5061022f600480360381019061022a91906122ec565b610832565b60405161023c919061248a565b60405180910390f35b34801561025157600080fd5b5061025a610905565b60405161026791906124bb565b60405180910390f35b34801561027c57600080fd5b50610297600480360381019061029291906124d6565b61090b565b005b3480156102a557600080fd5b506102ae61096b565b005b3480156102bc57600080fd5b506102d760048036038101906102d291906124d6565b610acc565b005b3480156102e557600080fd5b5061030060048036038101906102fb91906122ec565b610aec565b60405161030d919061235a565b60405180910390f35b34801561032257600080fd5b5061033d60048036038101906103389190612529565b610b72565b60405161034a91906121e9565b60405180910390f35b34801561035f57600080fd5b5061037a60048036038101906103759190612569565b610ba1565b60405161038791906124bb565b60405180910390f35b34801561039c57600080fd5b506103a5610c58565b6040516103b291906124bb565b60405180910390f35b3480156103c757600080fd5b506103d0610c5e565b6040516103dd919061235a565b60405180910390f35b3480156103f257600080fd5b506103fb610c84565b6040516104089190612294565b60405180910390f35b61042b600480360381019061042691906122ec565b610d16565b005b34801561043957600080fd5b50610454600480360381019061044f91906126cb565b610ef5565b005b34801561046257600080fd5b5061047d60048036038101906104789190612753565b611000565b005b34801561048b57600080fd5b506104a660048036038101906104a19190612834565b611016565b005b3480156104b457600080fd5b506104cf60048036038101906104ca91906122ec565b611078565b6040516104dc9190612294565b60405180910390f35b3480156104f157600080fd5b5061050c600480360381019061050791906122ec565b6110e0565b60405161051b939291906128b7565b60405180910390f35b34801561053057600080fd5b5061054b600480360381019061054691906128f5565b611192565b60405161055891906121e9565b60405180910390f35b60007f80ac58cd000000000000000000000000000000000000000000000000000000007bffffffffffffffffffffffffffffffffffffffffffffffffffffffff1916827bffffffffffffffffffffffffffffffffffffffffffffffffffffffff1916148061062c57507f5b5e139f000000000000000000000000000000000000000000000000000000007bffffffffffffffffffffffffffffffffffffffffffffffffffffffff1916827bffffffffffffffffffffffffffffffffffffffffffffffffffffffff1916145b8061063c575061063b82611226565b5b9050919050565b60606000805461065290612964565b80601f016020809104026020016040519081016040528092919081815260200182805461067e90612964565b80156106cb5780601f106106a0576101008083540402835291602001916106cb565b820191906000526020600020905b8154815290600101906020018083116106ae57829003601f168201915b5050505050905090565b60006106e082611290565b6004600083815260200190815260200160002060009054906101000a900473ffffffffffffffffffffffffffffffffffffffff169050919050565b600061072682610aec565b90508073ffffffffffffffffffffffffffffffffffffffff168373ffffffffffffffffffffffffffffffffffffffff1603610796576040517f08c379a000000000000000000000000000000000000000000000000000000000815260040161078d90612a07565b60405180910390fd5b8073ffffffffffffffffffffffffffffffffffffffff166107b56112db565b73ffffffffffffffffffffffffffffffffffffffff1614806107e457506107e3816107de6112db565b611192565b5b610823576040517f08c379a000000000000000000000000000000000000000000000000000000000815260040161081a90612a99565b60405180910390fd5b61082d83836112e3565b505050565b61083a612114565b600860008381526020019081526020016000206040518060600160405290816000820154815260200160018201805461087290612964565b80601f016020809104026020016040519081016040528092919081815260200182805461089e90612964565b80156108eb5780601f106108c0576101008083540402835291602001916108eb565b820191906000526020600020905b8154815290600101906020018083116108ce57829003601f168201915b505050505081526020016002820154815250509050919050565b600a5481565b61091c6109166112db565b8261139c565b61095b576040517f08c379a000000000000000000000000000000000000000000000000000000000815260040161095290612b2b565b60405180910390fd5b610966838383611431565b505050565b600660009054906101000a900473ffffffffffffffffffffffffffffffffffffffff1673ffffffffffffffffffffffffffffffffffffffff163373ffffffffffffffffffffffffffffffffffffffff16146109fb576040517f08c379a00000000000000000000000000000000000000000000000000000000081526004016109f290612bbd565b60405180910390fd5b6000600660009054906101000a900473ffffffffffffffffffffffffffffffffffffffff1673ffffffffffffffffffffffffffffffffffffffff1647604051610a4390612c0e565b60006040518083038185875af1925050503d8060008114610a80576040519150601f19603f3d011682016040523d82523d6000602084013e610a85565b606091505b5050905080610ac9576040517f08c379a0000000000000000000000000000000000000000000000000000000008152600401610ac090612c6f565b60405180910390fd5b50565b610ae783838360405180602001604052806000815250611016565b505050565b600080610af88361172a565b9050600073ffffffffffffffffffffffffffffffffffffffff168173ffffffffffffffffffffffffffffffffffffffff1603610b69576040517f08c379a0000000000000000000000000000000000000000000000000000000008152600401610b6090612cdb565b60405180910390fd5b80915050919050565b60076020528160005260406000206020528060005260406000206000915091509054906101000a900460ff1681565b60008073ffffffffffffffffffffffffffffffffffffffff168273ffffffffffffffffffffffffffffffffffffffff1603610c11576040517f08c379a0000000000000000000000000000000000000000000000000000000008152600401610c0890612d6d565b60405180910390fd5b600360008373ffffffffffffffffffffffffffffffffffffffff1673ffffffffffffffffffffffffffffffffffffffff168152602001908152602001600020549050919050565b60095481565b600660009054906101000a900473ffffffffffffffffffffffffffffffffffffffff1681565b606060018054610c9390612964565b80601f0160208091040260200160405190810160405280929190818152602001828054610cbf90612964565b8015610d0c5780601f10610ce157610100808354040283529160200191610d0c565b820191906000526020600020905b815481529060010190602001808311610cef57829003601f168201915b5050505050905090565b60008103610d2357600080fd5b600954811115610d68576040517f08c379a0000000000000000000000000000000000000000000000000000000008152600401610d5f90612dd9565b60405180910390fd5b600015156007600083815260200190815260200160002060003373ffffffffffffffffffffffffffffffffffffffff1673ffffffffffffffffffffffffffffffffffffffff16815260200190815260200160002060009054906101000a900460ff16151514610e0c576040517f08c379a0000000000000000000000000000000000000000000000000000000008152600401610e0390612e6b565b60405180910390fd5b6008600082815260200190815260200160002060020154341015610e65576040517f08c379a0000000000000000000000000000000000000000000000000000000008152600401610e5c90612ed7565b60405180910390fd5b60016007600083815260200190815260200160002060003373ffffffffffffffffffffffffffffffffffffffff1673ffffffffffffffffffffffffffffffffffffffff16815260200190815260200160002060006101000a81548160ff021916908315150217905550600a6000815480929190610ee190612f26565b9190505550610ef233600a54611767565b50565b600660009054906101000a900473ffffffffffffffffffffffffffffffffffffffff1673ffffffffffffffffffffffffffffffffffffffff163373ffffffffffffffffffffffffffffffffffffffff1614610f85576040517f08c379a0000000000000000000000000000000000000000000000000000000008152600401610f7c90612bbd565b60405180910390fd5b60096000815480929190610f9890612f26565b91905055506040518060600160405280600954815260200183815260200182815250600860006009548152602001908152602001600020600082015181600001556020820151816001019081610fee919061311a565b50604082015181600201559050505050565b61101261100b6112db565b8383611785565b5050565b6110276110216112db565b8361139c565b611066576040517f08c379a000000000000000000000000000000000000000000000000000000000815260040161105d90612b2b565b60405180910390fd5b611072848484846118f1565b50505050565b606061108382611290565b600061108d61194d565b905060008151116110ad57604051806020016040528060008152506110d8565b806110b784611964565b6040516020016110c8929190613228565b6040516020818303038152906040525b915050919050565b600860205280600052604060002060009150905080600001549080600101805461110990612964565b80601f016020809104026020016040519081016040528092919081815260200182805461113590612964565b80156111825780601f1061115757610100808354040283529160200191611182565b820191906000526020600020905b81548152906001019060200180831161116557829003601f168201915b5050505050908060020154905083565b6000600560008473ffffffffffffffffffffffffffffffffffffffff1673ffffffffffffffffffffffffffffffffffffffff16815260200190815260200160002060008373ffffffffffffffffffffffffffffffffffffffff1673ffffffffffffffffffffffffffffffffffffffff16815260200190815260200160002060009054906101000a900460ff16905092915050565b60007f01ffc9a7000000000000000000000000000000000000000000000000000000007bffffffffffffffffffffffffffffffffffffffffffffffffffffffff1916827bffffffffffffffffffffffffffffffffffffffffffffffffffffffff1916149050919050565b61129981611a32565b6112d8576040517f08c379a00000000000000000000000000000000000000000000000000000000081526004016112cf90612cdb565b60405180910390fd5b50565b600033905090565b816004600083815260200190815260200160002060006101000a81548173ffffffffffffffffffffffffffffffffffffffff021916908373ffffffffffffffffffffffffffffffffffffffff160217905550808273ffffffffffffffffffffffffffffffffffffffff1661135683610aec565b73ffffffffffffffffffffffffffffffffffffffff167f8c5be1e5ebec7d5bd14f71427d1e84f3dd0314c0f7b2291e5b200ac8c7c3b92560405160405180910390a45050565b6000806113a883610aec565b90508073ffffffffffffffffffffffffffffffffffffffff168473ffffffffffffffffffffffffffffffffffffffff1614806113ea57506113e98185611192565b5b8061142857508373ffffffffffffffffffffffffffffffffffffffff16611410846106d5565b73ffffffffffffffffffffffffffffffffffffffff16145b91505092915050565b8273ffffffffffffffffffffffffffffffffffffffff1661145182610aec565b73ffffffffffffffffffffffffffffffffffffffff16146114a7576040517f08c379a000000000000000000000000000000000000000000000000000000000815260040161149e906132be565b60405180910390fd5b600073ffffffffffffffffffffffffffffffffffffffff168273ffffffffffffffffffffffffffffffffffffffff1603611516576040517f08c379a000000000000000000000000000000000000000000000000000000000815260040161150d90613350565b60405180910390fd5b6115238383836001611a73565b8273ffffffffffffffffffffffffffffffffffffffff1661154382610aec565b73ffffffffffffffffffffffffffffffffffffffff1614611599576040517f08c379a0000000000000000000000000000000000000000000000000000000008152600401611590906132be565b60405180910390fd5b6004600082815260200190815260200160002060006101000a81549073ffffffffffffffffffffffffffffffffffffffff02191690556001600360008573ffffffffffffffffffffffffffffffffffffffff1673ffffffffffffffffffffffffffffffffffffffff168152602001908152602001600020600082825403925050819055506001600360008473ffffffffffffffffffffffffffffffffffffffff1673ffffffffffffffffffffffffffffffffffffffff16815260200190815260200160002060008282540192505081905550816002600083815260200190815260200160002060006101000a81548173ffffffffffffffffffffffffffffffffffffffff021916908373ffffffffffffffffffffffffffffffffffffffff160217905550808273ffffffffffffffffffffffffffffffffffffffff168473ffffffffffffffffffffffffffffffffffffffff167fddf252ad1be2c89b69c2b068fc378daa952ba7f163c4a11628f55a4df523b3ef60405160405180910390a46117258383836001611b99565b505050565b60006002600083815260200190815260200160002060009054906101000a900473ffffffffffffffffffffffffffffffffffffffff169050919050565b611781828260405180602001604052806000815250611b9f565b5050565b8173ffffffffffffffffffffffffffffffffffffffff168373ffffffffffffffffffffffffffffffffffffffff16036117f3576040517f08c379a00000000000000000000000000000000000000000000000000000000081526004016117ea906133bc565b60405180910390fd5b80600560008573ffffffffffffffffffffffffffffffffffffffff1673ffffffffffffffffffffffffffffffffffffffff16815260200190815260200160002060008473ffffffffffffffffffffffffffffffffffffffff1673ffffffffffffffffffffffffffffffffffffffff16815260200190815260200160002060006101000a81548160ff0219169083151502179055508173ffffffffffffffffffffffffffffffffffffffff168373ffffffffffffffffffffffffffffffffffffffff167f17307eab39ab6107e8899845ad3d59bd9653f200f220920489ca2b5937696c31836040516118e491906121e9565b60405180910390a3505050565b6118fc848484611431565b61190884848484611bfa565b611947576040517f08c379a000000000000000000000000000000000000000000000000000000000815260040161193e9061344e565b60405180910390fd5b50505050565b606060405180602001604052806000815250905090565b60606000600161197384611d81565b01905060008167ffffffffffffffff811115611992576119916125a0565b5b6040519080825280601f01601f1916602001820160405280156119c45781602001600182028036833780820191505090505b509050600082602001820190505b600115611a27578080600190039150507f3031323334353637383961626364656600000000000000000000000000000000600a86061a8153600a8581611a1b57611a1a61346e565b5b049450600085036119d2575b819350505050919050565b60008073ffffffffffffffffffffffffffffffffffffffff16611a548361172a565b73ffffffffffffffffffffffffffffffffffffffff1614159050919050565b6001811115611b9357600073ffffffffffffffffffffffffffffffffffffffff168473ffffffffffffffffffffffffffffffffffffffff1614611b075780600360008673ffffffffffffffffffffffffffffffffffffffff1673ffffffffffffffffffffffffffffffffffffffff1681526020019081526020016000206000828254611aff919061349d565b925050819055505b600073ffffffffffffffffffffffffffffffffffffffff168373ffffffffffffffffffffffffffffffffffffffff1614611b925780600360008573ffffffffffffffffffffffffffffffffffffffff1673ffffffffffffffffffffffffffffffffffffffff1681526020019081526020016000206000828254611b8a91906134d1565b925050819055505b5b50505050565b50505050565b611ba98383611ed4565b611bb66000848484611bfa565b611bf5576040517f08c379a0000000000000000000000000000000000000000000000000000000008152600401611bec9061344e565b60405180910390fd5b505050565b6000611c1b8473ffffffffffffffffffffffffffffffffffffffff166120f1565b15611d74578373ffffffffffffffffffffffffffffffffffffffff1663150b7a02611c446112db565b8786866040518563ffffffff1660e01b8152600401611c66949392919061355a565b6020604051808303816000875af1925050508015611ca257506040513d601f19601f82011682018060405250810190611c9f91906135bb565b60015b611d24573d8060008114611cd2576040519150601f19603f3d011682016040523d82523d6000602084013e611cd7565b606091505b506000815103611d1c576040517f08c379a0000000000000000000000000000000000000000000000000000000008152600401611d139061344e565b60405180910390fd5b805181602001fd5b63150b7a0260e01b7bffffffffffffffffffffffffffffffffffffffffffffffffffffffff1916817bffffffffffffffffffffffffffffffffffffffffffffffffffffffff191614915050611d79565b600190505b949350505050565b600080600090507a184f03e93ff9f4daa797ed6e38ed64bf6a1f0100000000000000008310611ddf577a184f03e93ff9f4daa797ed6e38ed64bf6a1f0100000000000000008381611dd557611dd461346e565b5b0492506040810190505b6d04ee2d6d415b85acef81000000008310611e1c576d04ee2d6d415b85acef81000000008381611e1257611e1161346e565b5b0492506020810190505b662386f26fc100008310611e4b57662386f26fc100008381611e4157611e4061346e565b5b0492506010810190505b6305f5e1008310611e74576305f5e1008381611e6a57611e6961346e565b5b0492506008810190505b6127108310611e99576127108381611e8f57611e8e61346e565b5b0492506004810190505b60648310611ebc5760648381611eb257611eb161346e565b5b0492506002810190505b600a8310611ecb576001810190505b80915050919050565b600073ffffffffffffffffffffffffffffffffffffffff168273ffffffffffffffffffffffffffffffffffffffff1603611f43576040517f08c379a0000000000000000000000000000000000000000000000000000000008152600401611f3a90613634565b60405180910390fd5b611f4c81611a32565b15611f8c576040517f08c379a0000000000000000000000000000000000000000000000000000000008152600401611f83906136a0565b60405180910390fd5b611f9a600083836001611a73565b611fa381611a32565b15611fe3576040517f08c379a0000000000000000000000000000000000000000000000000000000008152600401611fda906136a0565b60405180910390fd5b6001600360008473ffffffffffffffffffffffffffffffffffffffff1673ffffffffffffffffffffffffffffffffffffffff16815260200190815260200160002060008282540192505081905550816002600083815260200190815260200160002060006101000a81548173ffffffffffffffffffffffffffffffffffffffff021916908373ffffffffffffffffffffffffffffffffffffffff160217905550808273ffffffffffffffffffffffffffffffffffffffff16600073ffffffffffffffffffffffffffffffffffffffff167fddf252ad1be2c89b69c2b068fc378daa952ba7f163c4a11628f55a4df523b3ef60405160405180910390a46120ed600083836001611b99565b5050565b6000808273ffffffffffffffffffffffffffffffffffffffff163b119050919050565b60405180606001604052806000815260200160608152602001600081525090565b6000604051905090565b600080fd5b600080fd5b60007fffffffff0000000000000000000000000000000000000000000000000000000082169050919050565b61217e81612149565b811461218957600080fd5b50565b60008135905061219b81612175565b92915050565b6000602082840312156121b7576121b661213f565b5b60006121c58482850161218c565b91505092915050565b60008115159050919050565b6121e3816121ce565b82525050565b60006020820190506121fe60008301846121da565b92915050565b600081519050919050565b600082825260208201905092915050565b60005b8381101561223e578082015181840152602081019050612223565b60008484015250505050565b6000601f19601f8301169050919050565b600061226682612204565b612270818561220f565b9350612280818560208601612220565b6122898161224a565b840191505092915050565b600060208201905081810360008301526122ae818461225b565b905092915050565b6000819050919050565b6122c9816122b6565b81146122d457600080fd5b50565b6000813590506122e6816122c0565b92915050565b6000602082840312156123025761230161213f565b5b6000612310848285016122d7565b91505092915050565b600073ffffffffffffffffffffffffffffffffffffffff82169050919050565b600061234482612319565b9050919050565b61235481612339565b82525050565b600060208201905061236f600083018461234b565b92915050565b61237e81612339565b811461238957600080fd5b50565b60008135905061239b81612375565b92915050565b600080604083850312156123b8576123b761213f565b5b60006123c68582860161238c565b92505060206123d7858286016122d7565b9150509250929050565b6123ea816122b6565b82525050565b600082825260208201905092915050565b600061240c82612204565b61241681856123f0565b9350612426818560208601612220565b61242f8161224a565b840191505092915050565b600060608301600083015161245260008601826123e1565b506020830151848203602086015261246a8282612401565b915050604083015161247f60408601826123e1565b508091505092915050565b600060208201905081810360008301526124a4818461243a565b905092915050565b6124b5816122b6565b82525050565b60006020820190506124d060008301846124ac565b92915050565b6000806000606084860312156124ef576124ee61213f565b5b60006124fd8682870161238c565b935050602061250e8682870161238c565b925050604061251f868287016122d7565b9150509250925092565b600080604083850312156125405761253f61213f565b5b600061254e858286016122d7565b925050602061255f8582860161238c565b9150509250929050565b60006020828403121561257f5761257e61213f565b5b600061258d8482850161238c565b91505092915050565b600080fd5b600080fd5b7f4e487b7100000000000000000000000000000000000000000000000000000000600052604160045260246000fd5b6125d88261224a565b810181811067ffffffffffffffff821117156125f7576125f66125a0565b5b80604052505050565b600061260a612135565b905061261682826125cf565b919050565b600067ffffffffffffffff821115612636576126356125a0565b5b61263f8261224a565b9050602081019050919050565b82818337600083830152505050565b600061266e6126698461261b565b612600565b90508281526020810184848401111561268a5761268961259b565b5b61269584828561264c565b509392505050565b600082601f8301126126b2576126b1612596565b5b81356126c284826020860161265b565b91505092915050565b600080604083850312156126e2576126e161213f565b5b600083013567ffffffffffffffff811115612700576126ff612144565b5b61270c8582860161269d565b925050602061271d858286016122d7565b9150509250929050565b612730816121ce565b811461273b57600080fd5b50565b60008135905061274d81612727565b92915050565b6000806040838503121561276a5761276961213f565b5b60006127788582860161238c565b92505060206127898582860161273e565b9150509250929050565b600067ffffffffffffffff8211156127ae576127ad6125a0565b5b6127b78261224a565b9050602081019050919050565b60006127d76127d284612793565b612600565b9050828152602081018484840111156127f3576127f261259b565b5b6127fe84828561264c565b509392505050565b600082601f83011261281b5761281a612596565b5b813561282b8482602086016127c4565b91505092915050565b6000806000806080858703121561284e5761284d61213f565b5b600061285c8782880161238c565b945050602061286d8782880161238c565b935050604061287e878288016122d7565b925050606085013567ffffffffffffffff81111561289f5761289e612144565b5b6128ab87828801612806565b91505092959194509250565b60006060820190506128cc60008301866124ac565b81810360208301526128de818561225b565b90506128ed60408301846124ac565b949350505050565b6000806040838503121561290c5761290b61213f565b5b600061291a8582860161238c565b925050602061292b8582860161238c565b9150509250929050565b7f4e487b7100000000000000000000000000000000000000000000000000000000600052602260045260246000fd5b6000600282049050600182168061297c57607f821691505b60208210810361298f5761298e612935565b5b50919050565b7f4552433732313a20617070726f76616c20746f2063757272656e74206f776e6560008201527f7200000000000000000000000000000000000000000000000000000000000000602082015250565b60006129f160218361220f565b91506129fc82612995565b604082019050919050565b60006020820190508181036000830152612a20816129e4565b9050919050565b7f4552433732313a20617070726f76652063616c6c6572206973206e6f7420746f60008201527f6b656e206f776e6572206f7220617070726f76656420666f7220616c6c000000602082015250565b6000612a83603d8361220f565b9150612a8e82612a27565b604082019050919050565b60006020820190508181036000830152612ab281612a76565b9050919050565b7f4552433732313a2063616c6c6572206973206e6f7420746f6b656e206f776e6560008201527f72206f7220617070726f76656400000000000000000000000000000000000000602082015250565b6000612b15602d8361220f565b9150612b2082612ab9565b604082019050919050565b60006020820190508181036000830152612b4481612b08565b9050919050565b7f4f6e6c79206f776e65722063616e2063616c6c20746869732066756e6374696f60008201527f6e00000000000000000000000000000000000000000000000000000000000000602082015250565b6000612ba760218361220f565b9150612bb282612b4b565b604082019050919050565b60006020820190508181036000830152612bd681612b9a565b9050919050565b600081905092915050565b50565b6000612bf8600083612bdd565b9150612c0382612be8565b600082019050919050565b6000612c1982612beb565b9150819050919050565b7f5769746864726177696e67206661696c65640000000000000000000000000000600082015250565b6000612c5960128361220f565b9150612c6482612c23565b602082019050919050565b60006020820190508181036000830152612c8881612c4c565b9050919050565b7f4552433732313a20696e76616c696420746f6b656e2049440000000000000000600082015250565b6000612cc560188361220f565b9150612cd082612c8f565b602082019050919050565b60006020820190508181036000830152612cf481612cb8565b9050919050565b7f4552433732313a2061646472657373207a65726f206973206e6f74206120766160008201527f6c6964206f776e65720000000000000000000000000000000000000000000000602082015250565b6000612d5760298361220f565b9150612d6282612cfb565b604082019050919050565b60006020820190508181036000830152612d8681612d4a565b9050919050565b7f496e76616c6964204368616e6e656c2049440000000000000000000000000000600082015250565b6000612dc360128361220f565b9150612dce82612d8d565b602082019050919050565b60006020820190508181036000830152612df281612db6565b9050919050565b7f596f75206861766520616c7265616479206a6f696e656420746869732063686160008201527f6e6e656c21000000000000000000000000000000000000000000000000000000602082015250565b6000612e5560258361220f565b9150612e6082612df9565b604082019050919050565b60006020820190508181036000830152612e8481612e48565b9050919050565b7f496e76616c696420616d6f756e74000000000000000000000000000000000000600082015250565b6000612ec1600e8361220f565b9150612ecc82612e8b565b602082019050919050565b60006020820190508181036000830152612ef081612eb4565b9050919050565b7f4e487b7100000000000000000000000000000000000000000000000000000000600052601160045260246000fd5b6000612f31826122b6565b91507fffffffffffffffffffffffffffffffffffffffffffffffffffffffffffffffff8203612f6357612f62612ef7565b5b600182019050919050565b60008190508160005260206000209050919050565b60006020601f8301049050919050565b600082821b905092915050565b600060088302612fd07fffffffffffffffffffffffffffffffffffffffffffffffffffffffffffffffff82612f93565b612fda8683612f93565b95508019841693508086168417925050509392505050565b6000819050919050565b600061301761301261300d846122b6565b612ff2565b6122b6565b9050919050565b6000819050919050565b61303183612ffc565b61304561303d8261301e565b848454612fa0565b825550505050565b600090565b61305a61304d565b613065818484613028565b505050565b5b818110156130895761307e600082613052565b60018101905061306b565b5050565b601f8211156130ce5761309f81612f6e565b6130a884612f83565b810160208510156130b7578190505b6130cb6130c385612f83565b83018261306a565b50505b505050565b600082821c905092915050565b60006130f1600019846008026130d3565b1980831691505092915050565b600061310a83836130e0565b9150826002028217905092915050565b61312382612204565b67ffffffffffffffff81111561313c5761313b6125a0565b5b6131468254612964565b61315182828561308d565b600060209050601f8311600181146131845760008415613172578287015190505b61317c85826130fe565b8655506131e4565b601f19841661319286612f6e565b60005b828110156131ba57848901518255600182019150602085019450602081019050613195565b868310156131d757848901516131d3601f8916826130e0565b8355505b6001600288020188555050505b505050505050565b600081905092915050565b600061320282612204565b61320c81856131ec565b935061321c818560208601612220565b80840191505092915050565b600061323482856131f7565b915061324082846131f7565b91508190509392505050565b7f4552433732313a207472616e736665722066726f6d20696e636f72726563742060008201527f6f776e6572000000000000000000000000000000000000000000000000000000602082015250565b60006132a860258361220f565b91506132b38261324c565b604082019050919050565b600060208201905081810360008301526132d78161329b565b9050919050565b7f4552433732313a207472616e7366657220746f20746865207a65726f2061646460008201527f7265737300000000000000000000000000000000000000000000000000000000602082015250565b600061333a60248361220f565b9150613345826132de565b604082019050919050565b600060208201905081810360008301526133698161332d565b9050919050565b7f4552433732313a20617070726f766520746f2063616c6c657200000000000000600082015250565b60006133a660198361220f565b91506133b182613370565b602082019050919050565b600060208201905081810360008301526133d581613399565b9050919050565b7f4552433732313a207472616e7366657220746f206e6f6e20455243373231526560008201527f63656976657220696d706c656d656e7465720000000000000000000000000000602082015250565b600061343860328361220f565b9150613443826133dc565b604082019050919050565b600060208201905081810360008301526134678161342b565b9050919050565b7f4e487b7100000000000000000000000000000000000000000000000000000000600052601260045260246000fd5b60006134a8826122b6565b91506134b3836122b6565b92508282039050818111156134cb576134ca612ef7565b5b92915050565b60006134dc826122b6565b91506134e7836122b6565b92508282019050808211156134ff576134fe612ef7565b5b92915050565b600081519050919050565b600082825260208201905092915050565b600061352c82613505565b6135368185613510565b9350613546818560208601612220565b61354f8161224a565b840191505092915050565b600060808201905061356f600083018761234b565b61357c602083018661234b565b61358960408301856124ac565b818103606083015261359b8184613521565b905095945050505050565b6000815190506135b581612175565b92915050565b6000602082840312156135d1576135d061213f565b5b60006135df848285016135a6565b91505092915050565b7f4552433732313a206d696e7420746f20746865207a65726f2061646472657373600082015250565b600061361e60208361220f565b9150613629826135e8565b602082019050919050565b6000602082019050818103600083015261364d81613611565b9050919050565b7f4552433732313a20746f6b656e20616c7265616479206d696e74656400000000600082015250565b600061368a601c8361220f565b915061369582613654565b602082019050919050565b600060208201905081810360008301526136b98161367d565b905091905056fea2646970667358221220dfdfdab9a874f6828b0bb49ee82032d6cb7e3299c93f18ac2b76a0c39fafb3fb64736f6c63430008110033",
  "linkReferences": {},
  "deployedLinkReferences": {}
}